{
  "contractName": "CrowdFund",
  "abi": [
    {
      "constant": true,
      "inputs": [],
      "name": "campaignName",
      "outputs": [
        {
          "name": "",
          "type": "string"
        }
      ],
      "payable": false,
      "stateMutability": "view",
      "type": "function"
    },
    {
      "constant": true,
      "inputs": [
        {
          "name": "",
          "type": "address"
        }
      ],
      "name": "approvers",
      "outputs": [
        {
          "name": "",
          "type": "bool"
        }
      ],
      "payable": false,
      "stateMutability": "view",
      "type": "function"
    },
    {
      "constant": true,
      "inputs": [],
      "name": "campaignDescription",
      "outputs": [
        {
          "name": "",
          "type": "string"
        }
      ],
      "payable": false,
      "stateMutability": "view",
      "type": "function"
    },
    {
      "constant": true,
      "inputs": [],
      "name": "manager",
      "outputs": [
        {
          "name": "",
          "type": "address"
        }
      ],
      "payable": false,
      "stateMutability": "view",
      "type": "function"
    },
    {
      "constant": true,
      "inputs": [
        {
          "name": "",
          "type": "uint256"
        }
      ],
      "name": "requests",
      "outputs": [
        {
          "name": "description",
          "type": "string"
        },
        {
          "name": "value",
          "type": "uint256"
        },
        {
          "name": "recipient",
          "type": "address"
        },
        {
          "name": "complete",
          "type": "bool"
        },
        {
          "name": "approvalsCount",
          "type": "uint256"
        }
      ],
      "payable": false,
      "stateMutability": "view",
      "type": "function"
    },
    {
      "constant": true,
      "inputs": [],
      "name": "minimumContribution",
      "outputs": [
        {
          "name": "",
          "type": "uint256"
        }
      ],
      "payable": false,
      "stateMutability": "view",
      "type": "function"
    },
    {
      "constant": true,
      "inputs": [],
      "name": "countOfApprovers",
      "outputs": [
        {
          "name": "",
          "type": "uint256"
        }
      ],
      "payable": false,
      "stateMutability": "view",
      "type": "function"
    },
    {
      "inputs": [
        {
          "name": "name",
          "type": "string"
        },
        {
          "name": "description",
          "type": "string"
        },
        {
          "name": "minimum",
          "type": "uint256"
        },
        {
          "name": "campaignOwner",
          "type": "address"
        }
      ],
      "payable": false,
      "stateMutability": "nonpayable",
      "type": "constructor"
    },
    {
      "constant": false,
      "inputs": [],
      "name": "contribute",
      "outputs": [],
      "payable": true,
      "stateMutability": "payable",
      "type": "function"
    },
    {
      "constant": false,
      "inputs": [
        {
          "name": "description",
          "type": "string"
        },
        {
          "name": "value",
          "type": "uint256"
        },
        {
          "name": "recipient",
          "type": "address"
        }
      ],
      "name": "createRequest",
      "outputs": [],
      "payable": false,
      "stateMutability": "nonpayable",
      "type": "function"
    },
    {
      "constant": false,
      "inputs": [
        {
          "name": "index",
          "type": "uint256"
        }
      ],
      "name": "approveRequests",
      "outputs": [],
      "payable": false,
      "stateMutability": "nonpayable",
      "type": "function"
    },
    {
      "constant": false,
      "inputs": [
        {
          "name": "index",
          "type": "uint256"
        }
      ],
      "name": "finializeRequest",
      "outputs": [],
      "payable": false,
      "stateMutability": "nonpayable",
      "type": "function"
    },
    {
      "constant": true,
      "inputs": [],
      "name": "getAllDetails",
      "outputs": [
        {
          "name": "",
          "type": "string"
        },
        {
          "name": "",
          "type": "string"
        },
        {
          "name": "",
          "type": "uint256"
        },
        {
          "name": "",
          "type": "uint256"
        },
        {
          "name": "",
          "type": "uint256"
        },
        {
          "name": "",
          "type": "uint256"
        },
        {
          "name": "",
          "type": "address"
        }
      ],
      "payable": false,
      "stateMutability": "view",
      "type": "function"
    },
    {
      "constant": true,
      "inputs": [],
      "name": "getRequestsCount",
      "outputs": [
        {
          "name": "",
          "type": "uint256"
        }
      ],
      "payable": false,
      "stateMutability": "view",
      "type": "function"
    }
  ],
  "bytecode": "0x60806040523480156200001157600080fd5b5060405162001517380380620015178339810180604052810190808051820192919060200180518201929190602001805190602001909291908051906020019092919050505083600090805190602001906200006f929190620000db565b50826001908051906020019062000088929190620000db565b5080600260006101000a81548173ffffffffffffffffffffffffffffffffffffffff021916908373ffffffffffffffffffffffffffffffffffffffff16021790555081600381905550505050506200018a565b828054600181600116156101000203166002900490600052602060002090601f016020900481019282601f106200011e57805160ff19168380011785556200014f565b828001600101855582156200014f579182015b828111156200014e57825182559160200191906001019062000131565b5b5090506200015e919062000162565b5090565b6200018791905b808211156200018357600081600090555060010162000169565b5090565b90565b61137d806200019a6000396000f3006080604052600436106100c5576000357c0100000000000000000000000000000000000000000000000000000000900463ffffffff1680630724fda9146100ca5780630a1443911461015a578063110842cb146101b55780633410452a14610245578063481c6a75146102705780634e08ac85146102c757806381d12c58146102f45780638a9cfd55146103e6578063937e09b1146104795780639e025bc3146104a4578063c90713fc146104d1578063ccc5d7d4146104fc578063d7bb99ba14610647575b600080fd5b3480156100d657600080fd5b506100df610651565b6040518080602001828103825283818151815260200191508051906020019080838360005b8381101561011f578082015181840152602081019050610104565b50505050905090810190601f16801561014c5780820380516001836020036101000a031916815260200191505b509250505060405180910390f35b34801561016657600080fd5b5061019b600480360381019080803573ffffffffffffffffffffffffffffffffffffffff1690602001909291905050506106ef565b604051808215151515815260200191505060405180910390f35b3480156101c157600080fd5b506101ca61070f565b6040518080602001828103825283818151815260200191508051906020019080838360005b8381101561020a5780820151818401526020810190506101ef565b50505050905090810190601f1680156102375780820380516001836020036101000a031916815260200191505b509250505060405180910390f35b34801561025157600080fd5b5061025a6107ad565b6040518082815260200191505060405180910390f35b34801561027c57600080fd5b506102856107ba565b604051808273ffffffffffffffffffffffffffffffffffffffff1673ffffffffffffffffffffffffffffffffffffffff16815260200191505060405180910390f35b3480156102d357600080fd5b506102f2600480360381019080803590602001909291905050506107e0565b005b34801561030057600080fd5b5061031f60048036038101908080359060200190929190505050610a6a565b60405180806020018681526020018573ffffffffffffffffffffffffffffffffffffffff1673ffffffffffffffffffffffffffffffffffffffff16815260200184151515158152602001838152602001828103825287818151815260200191508051906020019080838360005b838110156103a757808201518184015260208101905061038c565b50505050905090810190601f1680156103d45780820380516001836020036101000a031916815260200191505b50965050505050505060405180910390f35b3480156103f257600080fd5b50610477600480360381019080803590602001908201803590602001908080601f016020809104026020016040519081016040528093929190818152602001838380828437820191505050505050919291929080359060200190929190803573ffffffffffffffffffffffffffffffffffffffff169060200190929190505050610b74565b005b34801561048557600080fd5b5061048e610ceb565b6040518082815260200191505060405180910390f35b3480156104b057600080fd5b506104cf60048036038101908080359060200190929190505050610cf1565b005b3480156104dd57600080fd5b506104e6610f5a565b6040518082815260200191505060405180910390f35b34801561050857600080fd5b50610511610f60565b6040518080602001806020018881526020018781526020018681526020018581526020018473ffffffffffffffffffffffffffffffffffffffff1673ffffffffffffffffffffffffffffffffffffffff16815260200183810383528a818151815260200191508051906020019080838360005b8381101561059f578082015181840152602081019050610584565b50505050905090810190601f1680156105cc5780820380516001836020036101000a031916815260200191505b50838103825289818151815260200191508051906020019080838360005b838110156106055780820151818401526020810190506105ea565b50505050905090810190601f1680156106325780820380516001836020036101000a031916815260200191505b50995050505050505050505060405180910390f35b61064f611104565b005b60008054600181600116156101000203166002900480601f0160208091040260200160405190810160405280929190818152602001828054600181600116156101000203166002900480156106e75780601f106106bc576101008083540402835291602001916106e7565b820191906000526020600020905b8154815290600101906020018083116106ca57829003601f168201915b505050505081565b60046020528060005260406000206000915054906101000a900460ff1681565b60018054600181600116156101000203166002900480601f0160208091040260200160405190810160405280929190818152602001828054600181600116156101000203166002900480156107a55780601f1061077a576101008083540402835291602001916107a5565b820191906000526020600020905b81548152906001019060200180831161078857829003601f168201915b505050505081565b6000600580549050905090565b600260009054906101000a900473ffffffffffffffffffffffffffffffffffffffff1681565b60006005828154811015156107f157fe5b90600052602060002090600502019050600460003373ffffffffffffffffffffffffffffffffffffffff1673ffffffffffffffffffffffffffffffffffffffff16815260200190815260200160002060009054906101000a900460ff16151561090e576040517f08c379a00000000000000000000000000000000000000000000000000000000081526004018080602001828103825260508152602001807f596f7520646f6e277420686176652074686520726967687420746f206170707281526020017f6f766520617320796f7520686176656e277420636f6e7472696275746564207481526020017f6f20746869732063616d706169676e210000000000000000000000000000000081525060600191505060405180910390fd5b8060040160003373ffffffffffffffffffffffffffffffffffffffff1673ffffffffffffffffffffffffffffffffffffffff16815260200190815260200160002060009054906101000a900460ff161515156109f8576040517f08c379a00000000000000000000000000000000000000000000000000000000081526004018080602001828103825260248152602001807f596f75206861766520616c726561647920766f7465642120446f6e277420636881526020017f656174210000000000000000000000000000000000000000000000000000000081525060400191505060405180910390fd5b60018160040160003373ffffffffffffffffffffffffffffffffffffffff1673ffffffffffffffffffffffffffffffffffffffff16815260200190815260200160002060006101000a81548160ff02191690831515021790555080600301600081548092919060010191905055505050565b600581815481101515610a7957fe5b9060005260206000209060050201600091509050806000018054600181600116156101000203166002900480601f016020809104026020016040519081016040528092919081815260200182805460018160011615610100020316600290048015610b255780601f10610afa57610100808354040283529160200191610b25565b820191906000526020600020905b815481529060010190602001808311610b0857829003601f168201915b5050505050908060010154908060020160009054906101000a900473ffffffffffffffffffffffffffffffffffffffff16908060020160149054906101000a900460ff16908060030154905085565b610b7c611264565b600260009054906101000a900473ffffffffffffffffffffffffffffffffffffffff1673ffffffffffffffffffffffffffffffffffffffff163373ffffffffffffffffffffffffffffffffffffffff16141515610bd857600080fd5b60a0604051908101604052808581526020018481526020018373ffffffffffffffffffffffffffffffffffffffff16815260200160001515815260200160008152509050600581908060018154018082558091505090600182039060005260206000209060050201600090919290919091506000820151816000019080519060200190610c669291906112ac565b506020820151816001015560408201518160020160006101000a81548173ffffffffffffffffffffffffffffffffffffffff021916908373ffffffffffffffffffffffffffffffffffffffff16021790555060608201518160020160146101000a81548160ff0219169083151502179055506080820151816003015550505050505050565b60035481565b6000600260009054906101000a900473ffffffffffffffffffffffffffffffffffffffff1673ffffffffffffffffffffffffffffffffffffffff163373ffffffffffffffffffffffffffffffffffffffff16141515610d4f57600080fd5b600582815481101515610d5e57fe5b906000526020600020906005020190508060020160149054906101000a900460ff16151515610e1b576040517f08c379a00000000000000000000000000000000000000000000000000000000081526004018080602001828103825260288152602001807f5468697320726571756573742068617320616c7265616479206265656e20666981526020017f6e616c697a65642100000000000000000000000000000000000000000000000081525060400191505060405180910390fd5b6002600754811515610e2957fe5b048160030154111515610eca576040517f08c379a00000000000000000000000000000000000000000000000000000000081526004018080602001828103825260358152602001807f486176656e277420726563696576656420656e6f75676820617070726f76616c81526020017f732066726f6d2074686520696e766573746f727321000000000000000000000081525060400191505060405180910390fd5b8060020160009054906101000a900473ffffffffffffffffffffffffffffffffffffffff1673ffffffffffffffffffffffffffffffffffffffff166108fc82600101549081150290604051600060405180830381858888f19350505050158015610f38573d6000803e3d6000fd5b5060018160020160146101000a81548160ff0219169083151502179055505050565b60075481565b60608060008060008060008060016003543073ffffffffffffffffffffffffffffffffffffffff1631600580549050600754600260009054906101000a900473ffffffffffffffffffffffffffffffffffffffff16868054600181600116156101000203166002900480601f01602080910402602001604051908101604052809291908181526020018280546001816001161561010002031660029004801561104a5780601f1061101f5761010080835404028352916020019161104a565b820191906000526020600020905b81548152906001019060200180831161102d57829003601f168201915b50505050509650858054600181600116156101000203166002900480601f0160208091040260200160405190810160405280929190818152602001828054600181600116156101000203166002900480156110e65780601f106110bb576101008083540402835291602001916110e6565b820191906000526020600020905b8154815290600101906020018083116110c957829003601f168201915b50505050509550965096509650965096509650965090919293949596565b60035434101515156111a4576040517f08c379a000000000000000000000000000000000000000000000000000000000815260040180806020018281038252602b8152602001807f4d696e696d756e20636f6e747269627574696f6e20697320637269746572696181526020017f206973206e6f74206d657400000000000000000000000000000000000000000081525060400191505060405180910390fd5b600460003373ffffffffffffffffffffffffffffffffffffffff1673ffffffffffffffffffffffffffffffffffffffff16815260200190815260200160002060009054906101000a900460ff16151561120a576007600081548092919060010191905055505b6001600460003373ffffffffffffffffffffffffffffffffffffffff1673ffffffffffffffffffffffffffffffffffffffff16815260200190815260200160002060006101000a81548160ff021916908315150217905550565b60a0604051908101604052806060815260200160008152602001600073ffffffffffffffffffffffffffffffffffffffff168152602001600015158152602001600081525090565b828054600181600116156101000203166002900490600052602060002090601f016020900481019282601f106112ed57805160ff191683800117855561131b565b8280016001018555821561131b579182015b8281111561131a5782518255916020019190600101906112ff565b5b509050611328919061132c565b5090565b61134e91905b8082111561134a576000816000905550600101611332565b5090565b905600a165627a7a7230582039391df01110c3087d2855480b19d8bdcd550445e5416e433b13692bc7c9f5120029",
  "source": "pragma solidity ^0.4.26;\n\ncontract CrowdFund {\n    \n    struct Request{\n        string description;\n        uint value;\n        address recipient;\n        bool complete;\n        uint  approvalsCount;\n        mapping(address => bool) approvals;\n    }\n    \n    string public campaignName;\n    string public campaignDescription;\n    address public manager;\n    uint public minimumContribution;\n    mapping(address => bool) public approvers;\n    Request[] public requests;\n    uint numRequests;\n    uint public countOfApprovers;\n\n    modifier restricted() {\n        require(msg.sender == manager);\n        _;\n    }\n    \n    constructor(string name, string description ,uint minimum, address campaignOwner) public {\n        campaignName = name;\n        campaignDescription = description;\n        manager = campaignOwner;\n        minimumContribution = minimum;\n    }\n\n    function contribute() public payable {\n        require( msg.value >= minimumContribution,\"Minimun contribution is criteria is not met\");\n\n        if(!approvers[msg.sender]){\n            countOfApprovers++;\n        }\n        \n        approvers[msg.sender] = true;\n    }\n\n    function createRequest(string description, uint value, address recipient) public restricted {\n        Request memory newRequest = Request({\n           description: description,\n           value: value,\n           recipient: recipient,\n           complete: false,\n           approvalsCount: 0\n        });\n\n        requests.push(newRequest);\n    }\n\n\n    function approveRequests(uint index) public {\n        Request storage request = requests[index];\n        \n        require(approvers[msg.sender],\"You don't have the right to approve as you haven't contributed to this campaign!\");\n        require(!request.approvals[msg.sender],\"You have already voted! Don't cheat!\");\n\n        request.approvals[msg.sender] = true;\n        request.approvalsCount++;\n\n    }\n\n    function finializeRequest(uint index) public restricted {\n        Request storage request = requests[index];\n        require(!request.complete,\"This request has already been finalized!\");\n        require(request.approvalsCount > (countOfApprovers/2),\"Haven't recieved enough approvals from the investors!\");\n\n        request.recipient.transfer(request.value);\n        \n        request.complete = true;\n    }\n\n    function getAllDetails() public view returns (string,string,uint,uint,uint,uint,address) {\n        return(\n            campaignName,\n            campaignDescription,\n            minimumContribution,\n            this.balance,\n            requests.length,\n            countOfApprovers,\n            manager\n        );\n    }\n\n    function getRequestsCount() public view returns (uint) {\n        return requests.length;\n    }\n\n}\n\n",
  "sourcePath": "/home/adi/solidity/blockchain-based-crowdfunding-platform/contracts/CrowdFund.sol",
  "compiler": {
    "name": "solc",
    "version": "0.4.26+commit.4563c3fc.Emscripten.clang"
  },
  "schemaVersion": "3.4.9",
  "updatedAt": "2022-09-14T03:28:03.567Z",
  "networkType": "ethereum",
  "devdoc": {
    "methods": {}
  },
  "userdoc": {
    "methods": {}
  }
}